:100000000C942A000C9447000C9447000C94470071
:100010000C9447000C9447000C94B9130C94E6130D
:100020000C9413140C9440140C9447000C94E81096
:100030000C9447000C9447000C9447000C94470024
:100040000C9447000C9447000C9447000C94470014
:100050000C94470011241FBECFE5D8E0DEBFCDBF12
:1000600011E0A0E6B0E0E4E7F6E302C005900D92EF
:10007000AE37B107D9F711E0AEE7B1E001C01D928C
:10008000A838B107E1F70E94C3190C94381B0C94EF
:100090000000EF92FF920F931F937B018C0120E0F1
:1000A00030E040E05FE40E94F50388238CF0C80153
:1000B000B70120E030E040E05FE40E94C1010E940F
:1000C00055049B01AC01205030404040504806C0D0
:1000D000C801B7010E9455049B01AC01B901CA01D6
:1000E0001F910F91FF90EF900895A0E0B0E0EBE733
:1000F000F0E00C94011BDC012B01FA019C91923081
:1001000008F439C1EB018881823008F433C194309E
:1001100069F4843009F02FC111969C91119789815F
:10012000981709F428C1A5E7B0E025C1843009F487
:1001300021C18230A9F4923009F01DC19A01AD01AC
:1001400088E0EA010990AE01E90109929E0181501F
:10015000C1F7E201898111969C918923818308C1AD
:10016000923009F407C112962D903C901397EB0141
:100170008A819B811496AD90BD90CD90DC901797AD
:10018000EC80FD800E811F819101281B390BB90184
:1001900037FF04C066277727621B730B6032710537
:1001A0000CF061C0121613066CF537014801062EDB
:1001B00004C096948794779467940A94D2F721E0C8
:1001C00030E040E050E004C0220F331F441F551FB1
:1001D0006A95D2F721503040404050402E213F21B7
:1001E00040235123211531054105510521F021E01E
:1001F00030E040E050E079018A01E628F72808293C
:1002000019293CC0232BD1F1260E371E350146019A
:10021000062E04C096948794779467940A94D2F734
:1002200021E030E040E050E004C0220F331F441FC3
:10023000551F6A95D2F721503040404050402A2146
:100240003B214C215D21211531054105510521F04E
:1002500021E030E040E050E059016A01A628B728CB
:10026000C828D9280BC0821593052CF01C01AA249C
:10027000BB24650103C0EE24FF24870111969C91E5
:10028000D20111968C91981709F445C0992339F041
:10029000A80197012A193B094C095D0906C0A6016E
:1002A00095012E193F09400B510B57FD08C01182D3
:1002B0003382228224833583468357831DC081E0A5
:1002C00081833382228288279927DC01821B930B4A
:1002D000A40BB50B84839583A683B7830DC0220F2F
:1002E000331F441F551F24833583468357838281E0
:1002F000938101979383828324813581468157813D
:10030000DA01C9010197A109B1098F5F9F4FAF4F72
:10031000BF4328F30BC0918333822282EA0CFB1C7B
:100320000C1D1D1DE482F5820683178383E0808304
:10033000248135814681578157FF1AC0C901AA27F8
:1003400097FDA095BA2F81709070A070B0705695EF
:10035000479537952795822B932BA42BB52B848318
:100360009583A683B7838281938101969383828349
:10037000DF0101C0D201CD01CDB7DEB7E2E10C94BF
:100380001D1BA0E2B0E0E7ECF1E00C940D1B6983CB
:100390007A838B839C832D833E834F835887E9E048
:1003A000EE2EF12CEC0EFD1ECE010196B7010E943F
:1003B00046068E010F5E1F4FCE010596B8010E94C2
:1003C00046068A8991E089278A8BC701B801AE0168
:1003D000475E5F4F0E9475000E947105A096E6E09F
:1003E0000C94291BA0E2B0E0E8EFF1E00C940D1BA7
:1003F00069837A838B839C832D833E834F835887C5
:10040000F9E0EF2EF12CEC0EFD1ECE010196B701A6
:100410000E9446068E010F5E1F4FCE010596B80161
:100420000E944606C701B801AE01475E5F4F0E94B9
:1004300075000E947105A096E6E00C94291BA0E2CD
:10044000B0E0E5E2F2E00C94011B69837A838B83D0
:100450009C832D833E834F835887CE010196BE0136
:10046000675F7F4F0E944606CE010596BE016F5E14
:100470007F4F0E9446069985923088F089898230A4
:10048000C8F0943019F4823051F404C0843029F457
:10049000923081F485E790E0C6C0923049F420E0C4
:1004A0009A858A89981321E02A87CE010996BBC0D4
:1004B000823049F420E09A858A89981321E02A8BBA
:1004C000CE014196B0C02D843E844F8458886D88FB
:1004D0007E888F88988CEE24FF248701AA24BB2471
:1004E000650140E050E060E070E0E0E0F0E0C10174
:1004F00081709070892BE9F0E60CF71C081D191D1E
:100500009A01AB012A0D3B1D4C1D5D1D80E090E062
:10051000A0E0B0E0E614F7040805190520F481E036
:1005200090E0A0E0B0E0BA01A901480F591F6A1F8E
:100530007B1FAA0CBB1CCC1CDD1C97FE08C081E0F5
:1005400090E0A0E0B0E0A82AB92ACA2ADB2A3196B6
:10055000E032F10549F0660C771C881C991C569412
:10056000479437942794C3CFFA85EA892B893C892D
:100570008B859C85280F391F2E5F3F4F17C0CA01FE
:1005800081709070892B61F016950795F794E79428
:1005900080E090E0A0E0B0E8E82AF92A0A2B1B2BC3
:1005A00076956795579547952F5F3F4F77FDE7CF36
:1005B0000CC0440F551F661F771F17FD4160EE0CDE
:1005C000FF1C001F111F21503040403090E05907A0
:1005D00090E0690790E4790760F32B8F3C8FDB0193
:1005E000CA018F779070A070B07080349105A1051A
:1005F000B10561F447FD0AC0E114F10401051105DC
:1006000029F0405C5F4F6F4F7F4F40781A8EFE1786
:1006100011F081E08A8F4D8F5E8F6F8F78A383E01A
:10062000898FCE0149960E947105A096E2E10C9453
:100630001D1BA8E1B0E0EFE1F3E00C94091B698316
:100640007A838B839C832D833E834F835887B9E0C5
:10065000EB2EF12CEC0EFD1ECE010196B7010E948F
:1006600046068E010F5E1F4FCE010596B8010E940F
:1006700046062985223008F47EC03989323010F4CC
:10068000B8017CC08A859A8989278A87243011F02D
:10069000223031F4231709F06EC065E770E06EC0B8
:1006A000343039F41D861E861F86188A1C861B86E8
:1006B00004C0323021F484E08987B7015FC02B8504
:1006C0003C858B899C89281B390B3C872B87ED84C3
:1006D000FE840F851889AD88BE88CF88D88CEA142F
:1006E000FB040C051D0540F4EE0CFF1C001F111F40
:1006F000215030403C872B8720E030E040E050E044
:1007000080E090E0A0E0B0E460E070E0EA14FB0478
:100710000C051D0540F0282B392B4A2B5B2BEA18C2
:10072000FB080C091D09B695A79597958795EE0CC2
:10073000FF1C001F111F6F5F7F4F6F31710531F775
:10074000DA01C9018F779070A070B0708034910584
:10075000A105B10561F427FD0AC0E114F10401050A
:10076000110529F0205C3F4F4F4F5F4F20782D87B8
:100770003E874F87588BBE01675F7F4FCB010E943A
:1007800071056896EAE00C94251BA8E1B0E0EBEC5B
:10079000F3E00C940D1B69837A838B839C832D83F8
:1007A0003E834F83588789E0E82EF12CEC0EFD1E26
:1007B000CE010196B7010E9446068E010F5E1F4FC3
:1007C000CE010596B8010E9446068985823040F028
:1007D0008989823028F0C701B8010E94BE0601C095
:1007E0008FEF6896E6E00C94291BA8E1B0E0EBEFF0
:1007F000F3E00C940D1B69837A838B839C832D8398
:100800003E834F83588789E0E82EF12CEC0EFD1EC5
:10081000CE010196B7010E9446068E010F5E1F4F62
:10082000CE010596B8010E9446068985823040F0C7
:100830008989823028F0C701B8010E94BE0601C034
:100840008FEF6896E6E00C94291BA8E1B0E0EBE29C
:10085000F4E00C940D1B69837A838B839C832D8336
:100860003E834F83588789E0E82EF12CEC0EFD1E65
:10087000CE010196B7010E9446068E010F5E1F4F02
:10088000CE010596B8010E9446068985823040F067
:100890008989823028F0C701B8010E94BE0601C0D4
:1008A00081E06896E6E00C94291BACE0B0E0EBE553
:1008B000F4E00C94111B69837A838B839C83CE01B3
:1008C0000196BE016B5F7F4F0E9446068D8182308C
:1008D00061F1823050F1843021F48E81882351F10E
:1008E0002EC02F81388537FD20C06E812F31310514
:1008F0001CF06623F9F023C08EE190E0821B930B7D
:1009000029853A854B855C8504C056954795379572
:1009100027958A95D2F76623B1F05095409530958A
:1009200021953F4F4F4F5F4F0EC020E030E040E039
:1009300050E009C02FEF3FEF4FEF5FE704C020E02A
:1009400030E040E050E8B901CA012C96E2E00C9496
:100950002D1BA8E0B0E0EFEAF4E00C94091B7B014A
:100960008C01611571058105910519F482E0898377
:1009700060C083E089838EE1C82ED12CDC82CB82DB
:10098000ED82FE820F831887C801B7010E942205FD
:10099000FC013197F7FF3BC0222733272E1B3F0B6B
:1009A00057016801022E04C0D694C794B794A79447
:1009B0000A94D2F740E050E060E070E081E090E01F
:1009C000A0E0B0E004C0880F991FAA1FBB1F2A95A2
:1009D000D2F70197A109B1098E219F21A023B1234C
:1009E0000097A105B10521F041E050E060E070E022
:1009F0004A295B296C297D294D835E836F83788723
:100A00008EE190E08E1B9F0B9C838B8312C03097EE
:100A100081F00E2E04C0EE0CFF1C001F111F0A9463
:100A2000D2F7ED82FE820F831887CE1ADF0ADC82AE
:100A3000CB821A82CE0101960E9471052896EAE0C7
:100A40000C94251BEF92FF920F931F937B018C0157
:100A500080E0E81680E0F80681E0080780E01807EB
:100A600088F48FEFE816F1040105110531F028F044
:100A700088E090E0A0E0B0E017C080E090E0A0E067
:100A8000B0E012C080E0E81680E0F80680E00807D9
:100A900081E0180728F088E190E0A0E0B0E004C011
:100AA00080E190E0A0E0B0E020E230E040E050E003
:100AB000281B390B4A0B5B0B04C016950795F7945E
:100AC000E7948A95D2F7F701E358FF4F8081281BFE
:100AD000310941095109C9011F910F91FF90EF9010
:100AE0000895DF92EF92FF920F931F93FC01E48031
:100AF000F58006811781D1808081823048F480E0C2
:100B000090E0A0E1B0E0E82AF92A0A2B1B2BA5C04F
:100B1000843009F49FC0823021F4EE24FF24870141
:100B200005C0E114F1040105110519F4E0E0F0E05D
:100B300096C0628173819FEF623879070CF05BC0C9
:100B400022E83FEF261B370B2A3131052CF020E03D
:100B500030E040E050E02AC0B801A701022E04C0F6
:100B600076956795579547950A94D2F781E090E07E
:100B7000A0E0B0E004C0880F991FAA1FBB1F2A95F0
:100B8000D2F70197A109B1098E219F21A023B1239A
:100B90000097A105B10521F081E090E0A0E0B0E070
:100BA0009A01AB01282B392B4A2B5B2BDA01C901A7
:100BB0008F779070A070B07080349105A105B10559
:100BC00039F427FF09C0205C3F4F4F4F5F4F04C0EF
:100BD000215C3F4F4F4F5F4FE0E0F0E02030A0E05E
:100BE0003A07A0E04A07A0E45A0710F0E1E0F0E07D
:100BF00079018A0127C06038710564F5FB01E1586D
:100C0000FF4FD801C7018F779070A070B07080340B
:100C10009105A105B10539F4E7FE0DC080E490E02F
:100C2000A0E0B0E004C08FE390E0A0E0B0E0E80E08
:100C3000F91E0A1F1B1F17FF05C016950795F7948D
:100C4000E794319687E016950795F794E7948A958F
:100C5000D1F705C0EE24FF248701EFEFF0E06E2FFF
:100C6000679566276795902F9F77D794DD24D79453
:100C70008E2F8695492F462B582F5D29B701CA0123
:100C80001F910F91FF90EF90DF900895FC01DB0121
:100C9000408151812281622F6F7770E0221F2227CD
:100CA000221F9381892F880F822B282F30E0991FD4
:100CB0009927991F11969C93119721153105A9F534
:100CC000411551056105710511F482E037C082E8D4
:100CD0009FEF13969C938E9312979A01AB0167E056
:100CE000220F331F441F551F6A95D1F783E08C9361
:100CF0000DC0220F331F441F551F12968D919C91DA
:100D00001397019713969C938E931297203080E04F
:100D1000380780E0480780E4580758F314962D936D
:100D20003D934D935C93179708952F3F310579F4C8
:100D3000411551056105710519F484E08C930895FE
:100D400064FF03C081E08C9312C01C9210C02F5727
:100D5000304013963C932E93129783E08C9387E058
:100D6000440F551F661F771F8A95D1F7706414963C
:100D70004D935D936D937C93179708951F93DC01BA
:100D8000FB019C91923008F447C08081823008F4C6
:100D900043C0943051F411961C91843099F58181AF
:100DA000682F70E0611B71093FC0843021F09230E0
:100DB00031F48230B9F18181882389F12DC01196F7
:100DC0001C9111978230F1F081811817D9F4129695
:100DD0002D913C911397828193818217930794F010
:100DE00028173907BCF014968D919D910D90BC91F8
:100DF000A02D2481358146815781281739074A075C
:100E00005B0718F4112341F00AC082179307A40767
:100E1000B50740F4112319F061E070E005C06FEFF1
:100E20007FEF02C060E070E0CB011F910895DF9377
:100E3000CF93CDB7DEB727970FB6F894DEBF0FBEBE
:100E4000CDBF89836A834B838981843008F0EEC0EB
:100E50008A81883008F0EAC08B81813009F06FC048
:100E60008981282F30E03F832E838E819F818130BE
:100E7000910549F12E813F81223031052CF48E817C
:100E80009F81009761F0D2C02E813F8122303105D1
:100E900071F18E819F8183309105E9F1C7C0ABE389
:100EA000B0E0EBE3F0E08081482F8A81282F30E02A
:100EB00081E090E0022E02C0880F991F0A94E2F7A9
:100EC000842B8C93B3C0A8E3B0E0E8E3F0E080812A
:100ED000482F8A81282F30E081E090E0022E02C066
:100EE000880F991F0A94E2F7842B8C939FC0A5E387
:100EF000B0E0E5E3F0E08081482F8A81282F30E0E0
:100F000081E090E0022E02C0880F991F0A94E2F758
:100F1000842B8C938BC0A2E3B0E0E2E3F0E080810D
:100F2000482F8A81282F30E081E090E0022E02C015
:100F3000880F991F0A94E2F7842B8C9377C08B81DA
:100F4000882309F073C08981282F30E03D832C83EA
:100F50008C819D818130910559F12C813D81223018
:100F600031052CF48C819D81009769F05FC02C8144
:100F70003D812230310589F18C819D81833091053D
:100F800009F440C053C0ABE3B0E0EBE3F0E0808194
:100F9000482F8A81282F30E081E090E0022E02C0A5
:100FA000880F991F0A94E2F7809584238C933EC0A2
:100FB000A8E3B0E0E8E3F0E08081482F8A81282FA1
:100FC00030E081E090E0022E02C0880F991F0A9461
:100FD000E2F7809584238C9329C0A5E3B0E0E5E394
:100FE000F0E08081482F8A81282F30E081E090E076
:100FF000022E02C0880F991F0A94E2F7809584237D
:101000008C9314C0A2E3B0E0E2E3F0E08081482FCB
:101010008A81282F30E081E090E0022E02C0880F04
:10102000991F0A94E2F7809584238C9327960FB634
:10103000F894DEBF0FBECDBFCF91DF910895DF934F
:10104000CF93CDB7DEB727970FB6F894DEBF0FBEAC
:10105000CDBF89836A834B838981843008F0EEC0D9
:101060008A81883008F0EAC08B81813009F06FC036
:101070008981282F30E03F832E838E819F818130AC
:10108000910549F12E813F81223031052CF48E816A
:101090009F81009761F0D2C02E813F8122303105BF
:1010A00071F18E819F8183309105E9F1C7C0AAE378
:1010B000B0E0EAE3F0E08081482F8A81282F30E019
:1010C00081E090E0022E02C0880F991F0A94E2F797
:1010D000842B8C93B3C0A7E3B0E0E7E3F0E080811A
:1010E000482F8A81282F30E081E090E0022E02C054
:1010F000880F991F0A94E2F7842B8C939FC0A4E376
:10110000B0E0E4E3F0E08081482F8A81282F30E0CE
:1011100081E090E0022E02C0880F991F0A94E2F746
:10112000842B8C938BC0A1E3B0E0E1E3F0E08081FD
:10113000482F8A81282F30E081E090E0022E02C003
:10114000880F991F0A94E2F7842B8C9377C08B81C8
:10115000882309F073C08981282F30E03D832C83D8
:101160008C819D818130910559F12C813D81223006
:1011700031052CF48C819D81009769F05FC02C8132
:101180003D812230310589F18C819D81833091052B
:1011900009F440C053C0AAE3B0E0EAE3F0E0808184
:1011A000482F8A81282F30E081E090E0022E02C093
:1011B000880F991F0A94E2F7809584238C933EC090
:1011C000A7E3B0E0E7E3F0E08081482F8A81282F91
:1011D00030E081E090E0022E02C0880F991F0A944F
:1011E000E2F7809584238C9329C0A4E3B0E0E4E384
:1011F000F0E08081482F8A81282F30E081E090E064
:10120000022E02C0880F991F0A94E2F7809584236A
:101210008C9314C0A1E3B0E0E1E3F0E08081482FBB
:101220008A81282F30E081E090E0022E02C0880FF2
:10123000991F0A94E2F7809584238C9327960FB622
:10124000F894DEBF0FBECDBFCF91DF910895DF933D
:10125000CF9300D000D00F92CDB7DEB78A836B83D7
:101260008A81843008F06EC08B81883008F06AC0B3
:101270008A81282F30E03D832C834C815D81413071
:10128000510541F18C819D818230910534F42C818E
:101290003D812115310561F053C04C815D814230A3
:1012A000510551F18C819D8183309105B9F148C080
:1012B000E9E3F0E08081282F30E08B81882F90E0F7
:1012C000A90102C0559547958A95E2F7CA01817038
:1012D000898338C0E6E3F0E08081282F30E08B81FD
:1012E000882F90E0A90102C0559547958A95E2F7AD
:1012F000CA018170898326C0E3E3F0E08081282F52
:1013000030E08B81882F90E0A90102C05595479568
:101310008A95E2F7CA018170898314C0E0E3F0E0A6
:101320008081282F30E08B81882F90E0A90102C0B6
:10133000559547958A95E2F7CA018170898302C065
:101340008FEF89838FEF898389810F900F900F90A2
:101350000F900F90CF91DF910895DF93CF9300D03E
:1013600000D0CDB7DEB789836A838981282F30E02A
:101370003C832B838B819C8181309105D1F02B8123
:101380003C81223031052CF48B819C81009761F0E7
:101390001EC02B813C812230310581F08B819C81E4
:1013A0008330910581F013C0EAE3F0E08A81808305
:1013B0000EC0E7E3F0E08A81808309C0E4E3F0E057
:1013C0008A81808304C0E1E3F0E08A8180830F900A
:1013D0000F900F900F90CF91DF910895DF93CF93EF
:1013E00000D000D0CDB7DEB789836A838981282FEA
:1013F00030E03C832B838B819C8181309105D1F03F
:101400002B813C81223031052CF48B819C8100970B
:1014100061F01EC02B813C812230310581F08B812F
:101420009C818330910581F013C0EBE3F0E08A8169
:1014300080830EC0E8E3F0E08A81808309C0E5E3A1
:10144000F0E08A81808304C0E2E3F0E08A81808357
:101450000F900F900F900F90CF91DF910895DF9331
:10146000CF93CDB7DEB7E8970FB6F894DEBF0FBEC7
:10147000CDBF82E06FEF0E94AD0981E065E041E001
:101480000E941F0881E066E041E00E941F0881E0A1
:1014900067E041E00E941F0880E090E0ACE0B2E429
:1014A0008DAB9EABAFABB8AF6DA97EA98FA998AD40
:1014B00020E030E04AEF54E40E941F02DC01CB013F
:1014C00089AB9AABABABBCAB69A97AA98BA99CA938
:1014D00020E030E040E85FE30E94250488232CF4FC
:1014E00081E090E098AB8FA73FC069A97AA98BA94A
:1014F0009CA920E03FEF4FE757E40E94C503181670
:101500004CF56DA97EA98FA998AD20E030E040E2AE
:1015100051E40E941F02DC01CB01BC01CD010E94FD
:101520004900DC01CB0198AB8FA70FC088EC90E09D
:101530009EA78DA78DA59EA50197F1F79EA78DA7C4
:101540008FA598A9019798AB8FA78FA598A9009709
:1015500069F714C069A97AA98BA99CA90E944900BE
:10156000DC01CB0198AB8FA78FA598A99CA78BA76F
:101570008BA59CA50197F1F79CA78BA788E30E94F8
:10158000100E80E090E0A0E8BFE38FA398A7A9A782
:10159000BAA76FA178A589A59AA520E030E04AEF07
:1015A00054E40E941F02DC01CB018BA39CA3ADA3DA
:1015B000BEA36BA17CA18DA19EA120E030E040E8FC
:1015C0005FE30E94250488232CF481E090E09AA335
:1015D00089A33FC06BA17CA18DA19EA120E03FEF1C
:1015E0004FE757E40E94C50318164CF56FA178A584
:1015F00089A59AA520E030E040E251E40E941F0254
:10160000DC01CB01BC01CD010E944900DC01CB0112
:101610009AA389A30FC088EC90E098A38F8F8F8D39
:1016200098A10197F1F798A38F8F89A19AA10197AB
:101630009AA389A389A19AA1009769F714C06BA105
:101640007CA18DA19EA10E944900DC01CB019AA33F
:1016500089A389A19AA19E8F8D8F8D8D9E8D0197D3
:10166000F1F79E8F8D8F8FE00E94100E80E090E04A
:10167000A0E8BFE3898F9A8FAB8FBC8F698D7A8D7D
:101680008B8D9C8D20E030E04AEF54E40E941F02D5
:10169000DC01CB018D8B9E8BAF8BB88F6D897E89E2
:1016A0008F89988D20E030E040E85FE30E942504B8
:1016B00088232CF481E090E09C8B8B8B3FC06D895C
:1016C0007E898F89988D20E03FEF4FE757E40E9495
:1016D000C50318164CF5698D7A8D8B8D9C8D20E095
:1016E00030E040E251E40E941F02DC01CB01BC016A
:1016F000CD010E944900DC01CB019C8B8B8B0FC07C
:1017000088EC90E09A8B898B89899A890197F1F707
:101710009A8B898B8B899C8901979C8B8B8B8B896E
:101720009C89009769F714C06D897E898F89988D8F
:101730000E944900DC01CB019C8B8B8B8B899C899F
:10174000988B8F878F8598890197F1F7988B8F8772
:1017500081E00E94100E80E090E0A0E0B0E48B8772
:101760009C87AD87BE876B857C858D859E8520E0B7
:1017700030E04AEF54E40E941F02DC01CB018F836A
:101780009887A987BA876F81788589859A8520E0AF
:1017900030E040E85FE30E94250488232CF481E0D8
:1017A00090E09E838D833FC06F81788589859A857F
:1017B00020E03FEF4FE757E40E94C50318164CF5B1
:1017C0006B857C858D859E8520E030E040E251E48C
:1017D0000E941F02DC01CB01BC01CD010E94490027
:1017E000DC01CB019E838D830FC088EC90E09C834D
:1017F0008B838B819C810197F1F79C838B838D81F7
:101800009E8101979E838D838D819E81009769F7CC
:1018100014C06F81788589859A850E944900DC0112
:10182000CB019E838D838D819E819A83898389815B
:101830009A810197F1F79A83898386E00E94100EBE
:10184000E8960FB6F894DEBF0FBECDBFCF91DF9103
:101850000895DF93CF93CDB7DEB7E8970FB6F8942E
:10186000DEBF0FBECDBF80E090E0ACE0B2E48DAB58
:101870009EABAFABB8AF6DA97EA98FA998AD20E0A4
:1018800030E04AEF54E40E941F02DC01CB0189AB37
:101890009AABABABBCAB69A97AA98BA99CA920E098
:1018A00030E040E85FE30E94250488232CF481E0C7
:1018B00090E098AB8FA73FC069A97AA98BA99CA992
:1018C00020E03FEF4FE757E40E94C50318164CF5A0
:1018D0006DA97EA98FA998AD20E030E040E251E4E7
:1018E0000E941F02DC01CB01BC01CD010E94490016
:1018F000DC01CB0198AB8FA70FC088EC90E09EA7CE
:101900008DA78DA59EA50197F1F79EA78DA78FA501
:1019100098A9019798AB8FA78FA598A9009769F709
:1019200014C069A97AA98BA99CA90E944900DC016D
:10193000CB0198AB8FA78FA598A99CA78BA78BA548
:101940009CA50197F1F79CA78BA780EA0E94100E37
:1019500080E090E0A0E8BFE38FA398A7A9A7BAA76B
:101960006FA178A589A59AA520E030E04AEF54E45C
:101970000E941F02DC01CB018BA39CA3ADA3BEA3DD
:101980006BA17CA18DA19EA120E030E040E85FE347
:101990000E94250488232CF481E090E09AA389A377
:1019A0003FC06BA17CA18DA19EA120E03FEF4FE73E
:1019B00057E40E94C50318164CF56FA178A589A5B8
:1019C0009AA520E030E040E251E40E941F02DC01D1
:1019D000CB01BC01CD010E944900DC01CB019AA3DF
:1019E00089A30FC088EC90E098A38F8F8F8D98A16A
:1019F0000197F1F798A38F8F89A19AA101979AA3D4
:101A000089A389A19AA1009769F714C06BA17CA151
:101A10008DA19EA10E944900DC01CB019AA389A35C
:101A200089A19AA19E8F8D8F8D8D9E8D0197F1F743
:101A30009E8F8D8F80EF0E94100E80E090E0A0E8D6
:101A4000BFE3898F9A8FAB8FBC8F698D7A8D8B8D19
:101A50009C8D20E030E04AEF54E40E941F02DC013C
:101A6000CB018D8B9E8BAF8BB88F6D897E898F89D3
:101A7000988D20E030E040E85FE30E942504882351
:101A80002CF481E090E09C8B8B8B3FC06D897E892C
:101A90008F89988D20E03FEF4FE757E40E94C50300
:101AA00018164CF5698D7A8D8B8D9C8D20E030E079
:101AB00040E251E40E941F02DC01CB01BC01CD01D8
:101AC0000E944900DC01CB019C8B8B8B0FC088EC02
:101AD00090E09A8B898B89899A890197F1F79A8B83
:101AE000898B8B899C8901979C8B8B8B8B899C899B
:101AF000009769F714C06D897E898F89988D0E943F
:101B00004900DC01CB019C8B8B8B8B899C89988B4A
:101B10008F878F8598890197F1F7988B8F8780E160
:101B20000E94100E80E090E0A0E0B0E48B879C87DC
:101B3000AD87BE876B857C858D859E8520E030E0F6
:101B40004AEF54E40E941F02DC01CB018F83988787
:101B5000A987BA876F81788589859A8520E030E0EA
:101B600040E85FE30E94250488232CF481E090E0A4
:101B70009E838D833FC06F81788589859A8520E01B
:101B80003FEF4FE757E40E94C50318164CF56B85ED
:101B90007C858D859E8520E030E040E251E40E9406
:101BA0001F02DC01CB01BC01CD010E944900DC0118
:101BB000CB019E838D830FC088EC90E09C838B8348
:101BC0008B819C810197F1F79C838B838D819E8112
:101BD00001979E838D838D819E81009769F714C044
:101BE0006F81788589859A850E944900DC01CB0147
:101BF0009E838D838D819E819A83898389819A8139
:101C00000197F1F79A83898380E60E94100EE89687
:101C10000FB6F894DEBF0FBECDBFCF91DF91089510
:101C2000DF93CF93CDB7DEB72F970FB6F894DEBF13
:101C30000FBECDBF8F8781E067E040E00E941707AD
:101C400081E066E040E00E94170782E06F850E9415
:101C5000EE0981E065E041E00E94170780E090E036
:101C6000A0E8BFE38B879C87AD87BE876B857C85AB
:101C70008D859E8520E030E04AEF54E40E941F02EB
:101C8000DC01CB018F839887A987BA876F8178851C
:101C900089859A8520E030E040E85FE30E942504D2
:101CA00088232CF481E090E09E838D833FC06F8178
:101CB000788589859A8520E03FEF4FE757E40E94B9
:101CC000C50318164CF56B857C858D859E8520E0B7
:101CD00030E040E251E40E941F02DC01CB01BC0174
:101CE000CD010E944900DC01CB019E838D830FC092
:101CF00088EC90E09C838B838B819C810197F1F72A
:101D00009C838B838D819E8101979E838D838D81A2
:101D10009E81009769F714C06F81788589859A85BF
:101D20000E944900DC01CB019E838D838D819E81C1
:101D30009A83898389819A810197F1F79A838983AC
:101D400081E065E040E00E9417072F960FB6F894F7
:101D5000DEBF0FBECDBFCF91DF910895DF93CF934C
:101D6000CDB7DEB72F970FB6F894DEBF0FBECDBF4D
:101D70008F8781E067E041E00E94170781E066E01D
:101D800040E00E94170782E06F850E94EE0981E023
:101D900065E041E00E94170780E090E0A0E8BFE323
:101DA0008B879C87AD87BE876B857C858D859E855F
:101DB00020E030E04AEF54E40E941F02DC01CB0136
:101DC0008F839887A987BA876F81788589859A8557
:101DD00020E030E040E85FE30E94250488232CF4F3
:101DE00081E090E09E838D833FC06F8178858985F7
:101DF0009A8520E03FEF4FE757E40E94C50318168D
:101E00004CF56B857C858D859E8520E030E040E239
:101E100051E40E941F02DC01CB01BC01CD010E94F4
:101E20004900DC01CB019E838D830FC088EC90E0DC
:101E30009C838B838B819C810197F1F79C838B839F
:101E40008D819E8101979E838D838D819E810097D8
:101E500069F714C06F81788589859A850E94490049
:101E6000DC01CB019E838D838D819E819A83898342
:101E700089819A810197F1F79A83898381E065E0EE
:101E800040E00E9417072F960FB6F894DEBF0FBEF2
:101E9000CDBFCF91DF910895DF93CF9300D00F9204
:101EA000CDB7DEB79B838A8319820EC08981282F24
:101EB00030E08A819B81FC01E20FF31F80810E9448
:101EC000AE0E89818F5F89838981282F30E08A81D6
:101ED0009B81FC01E20FF31F8081882339F70F906B
:101EE0000F900F90CF91DF910895DF93CF9300D0A3
:101EF000CDB7DEB789836A838981882329F48A81F3
:101F000080580E94100E07C08981813021F48A8197
:101F100080540E94100E0F900F90CF91DF91089582
:101F2000DF93CF93CDB7DEB728970FB6F894DEBF17
:101F30000FBECDBF9E838D8378876F8381E090E055
:101F40009C838B8381E090E09A83898381E090E099
:101F50009C838B8313C029813A818D819E81AC0142
:101F6000249FC001259F900D349F900D11249A83CA
:101F700089838B819C8101969C838B832B813C81FF
:101F80008F8198858217930734F789819A812896E3
:101F90000FB6F894DEBF0FBECDBFCF91DF9108958D
:101FA000EF92FF920F931F93DF93CF93CDB7DEB7DE
:101FB0002F970FB6F894DEBF0FBECDBF6C877D871D
:101FC0008E879F878C859D85AE85BF8588879987FD
:101FD000AA87BB871C821D821E821F821A821982D9
:101FE00015C08A818F5F8A838C859D85AE85BF856C
:101FF0002AE030E040E050E0BC01CD010E94C41A6C
:10200000DA01C9018C879D87AE87BF878C859D8546
:10201000AE85BF850097A105B10519F7888599851B
:10202000AA85BB858C879D87AE87BF878C859D855C
:10203000AE85BF852AE030E040E050E0BC01CD0134
:102040000E94C41ADC01CB010097A105B10511F46F
:1020500081E089838A818B8348C08C859D85AE858C
:10206000BF852AE030E040E050E0BC01CD010E9495
:10207000C41ADC01CB017C018D018B81992787FD7E
:1020800090959C01215030408AE090E0B9010E9477
:10209000900F9C01442737FD4095542FC801B7018C
:1020A0000E94A51A9B01AC018C819D81AE81BF81EC
:1020B000820F931FA41FB51F8C839D83AE83BF83A4
:1020C0008C859D85AE85BF852AE030E040E050E0FC
:1020D000BC01CD010E94C41ADA01C9018C879D8719
:1020E000AE87BF878B8181508B838B8118160CF450
:1020F000B4CF25C08C819D81AE81BF812AE030E0C4
:1021000040E050E0BC01CD010E94C41ADC01CB01CB
:102110008B838B81805D0E94AE0E8C819D81AE8110
:10212000BF812AE030E040E050E0BC01CD010E94D8
:10213000C41ADA01C9018C839D83AE83BF838C816D
:102140009D81AE81BF810097A105B10599F61B82E3
:1021500006C080E30E94AE0E8B818F5F8B839B81D4
:1021600089819817B4F32F960FB6F894DEBF0FBE8F
:10217000CDBFCF91DF911F910F91FF90EF90089508
:10218000DF93CF93CDB7DEB781E00E94100ECF91E1
:10219000DF910895DF93CF93CDB7DEB782E00E9441
:1021A000100ECF91DF910895DF93CF93CDB7DEB7B7
:1021B0008CE10E94100ECF91DF910895DF93CF93B1
:1021C000CDB7DEB788E10E94100ECF91DF91089560
:1021D0001F920F920FB60F9211242F933F934F939C
:1021E0005F936F937F938F939F93AF93BF93EF937F
:1021F000FF93DF93CF93CDB7DEB7E0917E01F091EF
:102200007F010995CF91DF91FF91EF91BF91AF9140
:102210009F918F917F916F915F914F913F912F91FE
:102220000F900FBE0F901F901895DF93CF9300D0A3
:10223000CDB7DEB79A83898389819A8190937F0194
:1022400080937E010F900F90CF91DF910895DF93DF
:10225000CF93CDB7DEB7A9E5B0E0E9E5F0E0808146
:102260008E7F8C93CF91DF910895DF93CF93CDB77D
:10227000DEB7A9E5B0E0E9E5F0E080818D7F8C93E1
:10228000CF91DF910895DF93CF93CDB7DEB7A8E567
:10229000B0E0E8E5F0E0808181608C93CF91DF9140
:1022A0000895DF93CF93CDB7DEB7A8E5B0E0E8E5BA
:1022B000F0E0808182608C93CF91DF910895DF936D
:1022C000CF930F92CDB7DEB7E8E5F0E08081817063
:1022D000898389810F90CF91DF910895DF93CF9308
:1022E0000F92CDB7DEB7E8E5F0E08081869581708A
:1022F000898389810F90CF91DF910895EF920F9399
:10230000DF93CF9300D000D000D0CDB7DEB7898364
:102310006A834B832C830D83EE82A3E5B0E0E3E573
:10232000F0E080818F778C938E81882379F4A3E508
:10233000B0E0E3E5F0E080818F7E8C93A3E5B0E030
:10234000E3E5F0E080818F7D8C9323C08E81823025
:1023500079F4A3E5B0E0E3E5F0E080818F7E8C9333
:10236000A3E5B0E0E3E5F0E0808180628C9311C0EA
:102370008E81833071F4A3E5B0E0E3E5F0E0808185
:1023800080618C93A3E5B0E0E3E5F0E080818062BA
:102390008C938981882309F5A3E5B0E0E3E5F0E0BB
:1023A0008081877F8C93A3E5B0E0E3E5F0E0808156
:1023B0008F7B8C938E81813009F055C0A3E5B0E00E
:1023C000E3E5F0E0808180618C93A3E5B0E0E3E594
:1023D000F0E080818F7D8C9346C08981813079F4D3
:1023E000A3E5B0E0E3E5F0E08081877F8C93A3E58F
:1023F000B0E0E3E5F0E0808180648C9334C08981B3
:10240000823001F5A3E5B0E0E3E5F0E0808188608B
:102410008C93A3E5B0E0E3E5F0E080818F7B8C93C3
:102420008E81813001F5A3E5B0E0E3E5F0E0808145
:1024300080618C93A3E5B0E0E3E5F0E080818F7DDF
:102440008C9311C08981833071F4A3E5B0E0E3E59A
:10245000F0E0808188608C93A3E5B0E0E3E5F0E0F4
:10246000808180648C938A818823B1F4A3E5B0E0F5
:10247000E3E5F0E080818E7F8C93A3E5B0E0E3E5B7
:10248000F0E080818D7F8C93A3E5B0E0E3E5F0E0A0
:1024900080818B7F8C93C2C08A818130B1F4A3E5A7
:1024A000B0E0E3E5F0E0808181608C93A3E5B0E0EB
:1024B000E3E5F0E080818D7F8C93A3E5B0E0E3E578
:1024C000F0E080818B7F8C93A9C08A818230B1F447
:1024D000A3E5B0E0E3E5F0E080818E7F8C93A3E597
:1024E000B0E0E3E5F0E0808182608C93A3E5B0E0AA
:1024F000E3E5F0E080818B7F8C9390C08A8183300C
:10250000B1F4A3E5B0E0E3E5F0E0808181608C9375
:10251000A3E5B0E0E3E5F0E0808182608C93A3E581
:10252000B0E0E3E5F0E080818B7F8C9377C08A8117
:102530008430B1F4A3E5B0E0E3E5F0E080818E7F84
:102540008C93A3E5B0E0E3E5F0E080818D7F8C9390
:10255000A3E5B0E0E3E5F0E0808184608C935EC0A9
:102560008A818530B1F4A3E5B0E0E3E5F0E0808155
:1025700081608C93A3E5B0E0E3E5F0E080818D7F9E
:102580008C93A3E5B0E0E3E5F0E0808184608C9378
:1025900045C08A81863001F5A3E5B0E0E3E5F0E0CF
:1025A00080818E7F8C93A3E5B0E0E3E5F0E080814D
:1025B00082608C93A3E5B0E0E3E5F0E08081846085
:1025C0008C9381E060E040E00E941F0881E060E0C1
:1025D00041E00E94170722C08A818730F9F4A3E501
:1025E000B0E0E3E5F0E0808181608C93A3E5B0E0AA
:1025F000E3E5F0E0808182608C93A3E5B0E0E3E561
:10260000F0E0808184608C9381E060E040E00E9493
:102610001F0881E060E040E00E9417078B8188235B
:10262000B1F4A9E5B0E0E9E5F0E0808181608C9348
:10263000A9E5B0E0E9E5F0E0808182608C93AFE548
:10264000B0E0EFE5F0E0808180688C9311C08B8171
:10265000813071F4A9E5B0E0E9E5F0E080818E7F9A
:102660008C93A9E5B0E0E9E5F0E080818D7F8C9363
:10267000E2E5F0E08C818083ECE5F0E08D81808301
:1026800026960FB6F894DEBF0FBECDBFCF91DF9177
:102690000F91EF900895DF93CF930F92CDB7DEB7F0
:1026A0008983E2E5F0E0898180830F90CF91DF910B
:1026B0000895DF93CF930F92CDB7DEB78983ECE512
:1026C000F0E0898180830F90CF91DF910895EF92A0
:1026D0000F931F93DF93CF93CDB7DEB728970FB635
:1026E000F894DEBF0FBECDBF6D837E838F83988746
:1026F00080E062E041E020E000E0EE240E947E11F4
:1027000019821A821B821C820E945F11813069F437
:102710000E94431189819A81AB81BC810196A11DE0
:10272000B11D89839A83AB83BC8389819A818C0193
:102730008D819E81AF81B88528EE33E040E050E086
:10274000BC01CD010E94A51ADC01CB01892F9A2F73
:10275000AB2FBB2708171907B9F628960FB6F894C0
:10276000DEBF0FBECDBFCF91DF911F910F91EF90D4
:1027700008951F920F920FB60F9211242F933F933B
:102780004F935F936F937F938F939F93AF93BF9379
:10279000EF93FF93DF93CF93CDB7DEB7E091860140
:1027A000F09187010995CF91DF91FF91EF91BF9152
:1027B000AF919F918F917F916F915F914F913F91D9
:1027C0002F910F900FBE0F901F9018951F920F9290
:1027D0000FB60F9211242F933F934F935F936F93F4
:1027E0007F938F939F93AF93BF93EF93FF93DF9369
:1027F000CF93CDB7DEB7E0918001F09181010995CB
:10280000CF91DF91FF91EF91BF91AF919F918F9108
:102810007F916F915F914F913F912F910F900FBEDC
:102820000F901F9018951F920F920FB60F921124C0
:102830002F933F934F935F936F937F938F939F93C8
:10284000AF93BF93EF93FF93DF93CF93CDB7DEB7F3
:10285000E0918201F09183010995CF91DF91FF9181
:10286000EF91BF91AF919F918F917F916F915F9108
:102870004F913F912F910F900FBE0F901F90189581
:102880001F920F920FB60F9211242F933F934F93E5
:102890005F936F937F938F939F93AF93BF93EF93C8
:1028A000FF93DF93CF93CDB7DEB7E0918401F09132
:1028B00085010995CF91DF91FF91EF91BF91AF9184
:1028C0009F918F917F916F915F914F913F912F9148
:1028D0000F900FBE0F901F901895DF93CF9300D0ED
:1028E000CDB7DEB79A83898389819A8190938701D6
:1028F000809386010F900F90CF91DF910895DF9321
:10290000CF9300D0CDB7DEB79A83898389819A812E
:1029100090938101809380010F900F90CF91DF9170
:102920000895DF93CF9300D0CDB7DEB79A83898324
:1029300089819A8190938301809382010F900F90F7
:10294000CF91DF910895DF93CF9300D0CDB7DEB75D
:102950009A83898389819A819093850180938401E8
:102960000F900F90CF91DF910895DF93CF930F9247
:10297000CDB7DEB7E8E5F0E0808182958F70817099
:10298000898389810F90CF91DF910895DF93CF9351
:102990000F92CDB7DEB7E8E5F0E0808186958695A9
:1029A00086958170898389810F90CF91DF910895F9
:1029B000DF93CF930F92CDB7DEB7E8E5F0E08081EB
:1029C000869586958170898389810F90CF91DF915B
:1029D0000895DF93CF930F92CDB7DEB7E8E5F0E02F
:1029E00080818295869587708170898389810F9017
:1029F000CF91DF910895DF93CF93CDB7DEB7A8E5F0
:102A0000B0E0E8E5F0E0808180618C93CF91DF91C8
:102A10000895DF93CF93CDB7DEB7A8E5B0E0E8E542
:102A2000F0E0808188608C93CF91DF910895DF93EF
:102A3000CF93CDB7DEB7A8E5B0E0E8E5F0E0808160
:102A400084608C93CF91DF910895DF93CF93CDB7BE
:102A5000DEB7A8E5B0E0E8E5F0E0808180628C9325
:102A6000CF91DF910895DF93CF93CDB7DEB7A9E57E
:102A7000B0E0E9E5F0E080818F7E8C93CF91DF912B
:102A80000895DF93CF93CDB7DEB7A9E5B0E0E9E5D0
:102A9000F0E08081877F8C93CF91DF910895DF9361
:102AA000CF93CDB7DEB7A9E5B0E0E9E5F0E08081EE
:102AB0008B7F8C93CF91DF910895DF93CF93CDB728
:102AC000DEB7A9E5B0E0E9E5F0E080818F7D8C9389
:102AD000CF91DF910895DF93CF9300D0CDB7DEB7CC
:102AE0009A838983ECE4F0E0898180830F900F90D2
:102AF000CF91DF910895DF93CF9300D0CDB7DEB7AC
:102B00009A838983EAE4F0E0898180830F900F90B3
:102B1000CF91DF910895DF93CF9300D0CDB7DEB78B
:102B20009A838983E8E4F0E0898180830F900F9095
:102B3000CF91DF910895DF93CF9300D0CDB7DEB76B
:102B40009A838983E6E4F0E0898180830F900F9077
:102B5000CF91DF9108958F92AF92BF92CF92DF9283
:102B6000EF92FF920F931F93DF93CF93CDB7DEB712
:102B70002D970FB6F894DEBF0FBECDBF89836A8351
:102B80004B832C831E830D83F886EF82DA86C986F9
:102B9000BC86AB868D86AFE4B0E0EFE4F0E08081E8
:102BA000877F8C93AFE4B0E0EFE4F0E080818B7F2F
:102BB0008C938A81882379F4AEE4B0E0EEE4F0E00F
:102BC00080818F7B8C93AEE4B0E0EEE4F0E0808116
:102BD00080688C9311C08A81813071F4AEE4B0E0DA
:102BE000EEE4F0E0808180648C93AEE4B0E0EEE44B
:102BF000F0E0808180688C938D858823E9F4AFE4D0
:102C0000B0E0EFE4F0E080818F7B8C93AFE4B0E044
:102C1000EFE4F0E080818F778C93AFE4B0E0EFE4F5
:102C2000F0E080818F7E8C93AFE4B0E0EFE4F0E0E1
:102C300080818F7D8C935FC08D858230E9F4AFE415
:102C4000B0E0EFE4F0E080818F7B8C93AFE4B0E004
:102C5000EFE4F0E0808180688C93AFE4B0E0EFE4D3
:102C6000F0E080818F7E8C93AFE4B0E0EFE4F0E0A1
:102C7000808180628C933FC08D858330E9F4AFE41E
:102C8000B0E0EFE4F0E0808180648C93AFE4B0E0EA
:102C9000EFE4F0E0808180688C93AFE4B0E0EFE493
:102CA000F0E0808180618C93AFE4B0E0EFE4F0E08D
:102CB000808180628C931FC08D858130E1F4AFE408
:102CC000B0E0EFE4F0E0808180648C93AFE4B0E0AA
:102CD000EFE4F0E080818F778C93AFE4B0E0EFE435
:102CE000F0E0808180618C93AFE4B0E0EFE4F0E04D
:102CF00080818F7D8C9389818823E9F4AFE4B0E0F3
:102D0000EFE4F0E080818E7F8C93AFE4B0E0EFE4FD
:102D1000F0E080818D7F8C93AEE4B0E0EEE4F0E0F3
:102D20008081877F8C93AEE4B0E0EEE4F0E08081B8
:102D30008F7E8C93BFC189818130E9F4AFE4B0E02C
:102D4000EFE4F0E0808181608C93AFE4B0E0EFE4E9
:102D5000F0E080818D7F8C93AEE4B0E0EEE4F0E0B3
:102D60008081877F8C93AEE4B0E0EEE4F0E0808178
:102D70008F7E8C939FC189818230E9F4AFE4B0E00B
:102D8000EFE4F0E080818E7F8C93AFE4B0E0EFE47D
:102D9000F0E0808182608C93AEE4B0E0EEE4F0E09D
:102DA0008081877F8C93AEE4B0E0EEE4F0E0808138
:102DB0008F7E8C937FC189818330E9F4AFE4B0E0EA
:102DC000EFE4F0E0808181608C93AFE4B0E0EFE469
:102DD000F0E0808182608C93AEE4B0E0EEE4F0E05D
:102DE0008081877F8C93AEE4B0E0EEE4F0E08081F8
:102DF0008F7E8C935FC189818430E9F4AFE4B0E0C9
:102E0000EFE4F0E080818E7F8C93AFE4B0E0EFE4FC
:102E1000F0E080818D7F8C93AEE4B0E0EEE4F0E0F2
:102E2000808188608C93AEE4B0E0EEE4F0E08081D5
:102E30008F7E8C933FC189818530E9F4AFE4B0E0A7
:102E4000EFE4F0E0808181608C93AFE4B0E0EFE4E8
:102E5000F0E080818D7F8C93AEE4B0E0EEE4F0E0B2
:102E6000808188608C93AEE4B0E0EEE4F0E0808195
:102E70008F7E8C931FC189818630E9F4AFE4B0E086
:102E8000EFE4F0E080818E7F8C93AFE4B0E0EFE47C
:102E9000F0E0808182608C93AEE4B0E0EEE4F0E09C
:102EA000808188608C93AEE4B0E0EEE4F0E0808155
:102EB0008F7E8C93FFC089818730E9F4AFE4B0E066
:102EC000EFE4F0E0808181608C93AFE4B0E0EFE468
:102ED000F0E0808182608C93AEE4B0E0EEE4F0E05C
:102EE000808188608C93AEE4B0E0EEE4F0E0808115
:102EF0008F7E8C93DFC089818830E9F4AFE4B0E045
:102F0000EFE4F0E080818E7F8C93AFE4B0E0EFE4FB
:102F1000F0E080818D7F8C93AEE4B0E0EEE4F0E0F1
:102F20008081877F8C93AEE4B0E0EEE4F0E08081B6
:102F300080618C93BFC089818930E9F4AFE4B0E04F
:102F4000EFE4F0E0808181608C93AFE4B0E0EFE4E7
:102F5000F0E080818D7F8C93AEE4B0E0EEE4F0E0B1
:102F60008081877F8C93AEE4B0E0EEE4F0E0808176
:102F700080618C939FC089818A30E9F4AFE4B0E02E
:102F8000EFE4F0E080818E7F8C93AFE4B0E0EFE47B
:102F9000F0E0808182608C93AEE4B0E0EEE4F0E09B
:102FA0008081877F8C93AEE4B0E0EEE4F0E0808136
:102FB00080618C937FC089818B30E9F4AFE4B0E00D
:102FC000EFE4F0E0808181608C93AFE4B0E0EFE467
:102FD000F0E0808182608C93AEE4B0E0EEE4F0E05B
:102FE0008081877F8C93AEE4B0E0EEE4F0E08081F6
:102FF00080618C935FC089818C30E9F4AFE4B0E0EC
:10300000EFE4F0E080818E7F8C93AFE4B0E0EFE4FA
:10301000F0E080818D7F8C93AEE4B0E0EEE4F0E0F0
:10302000808188608C93AEE4B0E0EEE4F0E08081D3
:1030300080618C933FC089818E30E9F4AFE4B0E0C9
:10304000EFE4F0E080818E7F8C93AFE4B0E0EFE4BA
:10305000F0E0808182608C93AEE4B0E0EEE4F0E0DA
:10306000808188608C93AEE4B0E0EEE4F0E0808193
:1030700080618C931FC089818F30E1F4AFE4B0E0B0
:10308000EFE4F0E0808181608C93AFE4B0E0EFE4A6
:10309000F0E0808182608C93AEE4B0E0EEE4F0E09A
:1030A000808188608C93AEE4B0E0EEE4F0E0808153
:1030B00080618C938B818823B1F4AEE4B0E0EEE4C0
:1030C000F0E080818E7F8C93AEE4B0E0EEE4F0E03F
:1030D00080818D7F8C93AEE4B0E0EEE4F0E08081FF
:1030E0008B7F8C93C2C08B818130B1F4AEE4B0E0B1
:1030F000EEE4F0E0808181608C93AEE4B0E0EEE439
:10310000F0E080818D7F8C93AEE4B0E0EEE4F0E0FF
:1031100080818B7F8C93A9C08B818230B1F4AEE427
:10312000B0E0EEE4F0E080818E7F8C93AEE4B0E01E
:10313000EEE4F0E0808182608C93AEE4B0E0EEE4F7
:10314000F0E080818B7F8C9390C08B818330B1F4D1
:10315000AEE4B0E0EEE4F0E0808181608C93AEE418
:10316000B0E0EEE4F0E0808182608C93AEE4B0E009
:10317000EEE4F0E080818B7F8C9377C08B8184308C
:10318000B1F4AEE4B0E0EEE4F0E080818E7F8C93A9
:10319000AEE4B0E0EEE4F0E080818D7F8C93AEE4AD
:1031A000B0E0EEE4F0E0808184608C935EC08B81BF
:1031B0008530B1F4AEE4B0E0EEE4F0E0808181600F
:1031C0008C93AEE4B0E0EEE4F0E080818D7F8C93F0
:1031D000AEE4B0E0EEE4F0E0808184608C9345C022
:1031E0008B81863001F5AEE4B0E0EEE4F0E0808162
:1031F0008E7F8C93AEE4B0E0EEE4F0E080818260FC
:103200008C93AEE4B0E0EEE4F0E0808184608C93D7
:1032100081E061E040E00E941F0881E061E041E060
:103220000E94170722C08B818730F9F4AEE4B0E02A
:10323000EEE4F0E0808181608C93AEE4B0E0EEE4F7
:10324000F0E0808182608C93AEE4B0E0EEE4F0E0E8
:10325000808184608C9381E061E040E00E941F08DF
:1032600081E061E040E00E9417078C81882321F50E
:10327000A9E5B0E0E9E5F0E0808184608C93A9E500
:10328000B0E0E9E5F0E0808180618C93A9E5B0E0F1
:10329000E9E5F0E0808188608C93A9E5B0E0E9E59C
:1032A000F0E0808180628C93AFE5B0E0EFE5F0E084
:1032B000808180688C931FC08C818130E1F4A9E506
:1032C000B0E0E9E5F0E080818B7F8C93A9E5B0E088
:1032D000E9E5F0E080818F7E8C93A9E5B0E0E9E537
:1032E000F0E08081877F8C93A9E5B0E0E9E5F0E02C
:1032F00080818F7D8C93ECE4F0E08D818083EAE423
:10330000F0E08F818083E8E4F0E0898580832D966A
:103310000FB6F894DEBF0FBECDBFCF91DF911F91E6
:103320000F91FF90EF90DF90CF90BF90AF908F9074
:103330000895DF93CF93CDB7DEB7AEE4B0E0EEE40F
:10334000F0E0808180648C93AEE4B0E0EEE4F0E0E5
:10335000808180688C93CF91DF910895DF93CF9324
:10336000CDB7DEB7AEE4B0E0EEE4F0E080818F7B75
:103370008C93AEE4B0E0EEE4F0E0808180688C9362
:10338000CF91DF9108958F92AF92BF92CF92DF924B
:10339000EF92FF920F931F93DF93CF93CDB7DEB7DA
:1033A00029970FB6F894DEBF0FBECDBF198687E010
:1033B00061E044E021E000E010E00F2EF1E7EF2EA5
:1033C000F2E0FF2EF02D0F2EF1E7CF2EF2E0DF2EF0
:1033D000F02DAA24BB248824689481F80E94AB15A0
:1033E0000E9425150E942F0A0E94C0100E94E91415
:1033F000813071F589858F5F89870E9425158985C0
:10340000833031F480E090E00E946B150E94AE1989
:103410008985843069F4E6E4F0E08081882F90E0CB
:1034200098878F8380E090E00E946B150E94991925
:103430008985853069F4E6E4F0E08081882F90E0AA
:103440009E838D8380E090E00E946B150E94991905
:103450008985863059F68F819885CC01A0E0B0E04F
:10346000BC01CD010E94A9047B018C012F8138850C
:103470008D819E81820F931FCC01A0E0B0E0BC0142
:10348000CD010E94A9049B01AC01C801B7010E94B3
:103490001903DC01CB01BC01CD010E945504DC0104
:1034A000CB019A83898329813A8184E690E0AC013B
:1034B000249FC001259F900D349F900D11249A8365
:1034C00089832F8138858D819E81820F931F9C0176
:1034D000442737FD4095542F80E492E4AFE0B0E0FC
:1034E000BC01CD010E94C41ADA01C9019C838B83FF
:1034F00080E060E00E94750F80E690E00E944C0F33
:1035000089819A81AA2797FDA095BA2FBC01CD0188
:103510000E94D00F86E690E00E944C0F81E061E0AF
:103520000E94750F89E690E00E944C0F8B819C8170
:10353000AA2797FDA095BA2FBC01CD010E94D00FFC
:1035400081E790E00E944C0FD3CF629FD001739F20
:10355000F001829FE00DF11D649FE00DF11D929F2F
:10356000F00D839FF00D749FF00D659FF00D99276E
:10357000729FB00DE11DF91F639FB00DE11DF91F92
:10358000BD01CF011124089597FB092E05260ED009
:1035900057FD04D014D00AD0001C38F45095409543
:1035A000309521953F4F4F4F5F4F0895F6F7909517
:1035B0008095709561957F4F8F4F9F4F0895A1E241
:1035C0001A2EAA1BBB1BFD010DC0AA1FBB1FEE1F9D
:1035D000FF1FA217B307E407F50720F0A21BB30BE8
:1035E000E40BF50B661F771F881F991F1A9469F764
:1035F00060957095809590959B01AC01BD01CF01C0
:1036000008952F923F924F925F926F927F928F9286
:103610009F92AF92BF92CF92DF92EF92FF920F9361
:103620001F93CF93DF93CDB7DEB7CA1BDB0B0FB66B
:10363000F894DEBF0FBECDBF09942A883988488828
:103640005F846E847D848C849B84AA84B984C884BE
:10365000DF80EE80FD800C811B81AA81B981CE0FB5
:10366000D11D0FB6F894DEBF0FBECDBFED0108959A
:04367000F894FFCFFC
:103674004443203D200020250046726571203D20F2
:103684000020487A00000000000000000000010251
:1036940002030303030404040404040404050505E9
:1036A40005050505050505050505050505060606C3
:1036B40006060606060606060606060606060606A6
:1036C4000606060606060606060606060607070793
:1036D4000707070707070707070707070707070776
:1036E4000707070707070707070707070707070766
:1036F4000707070707070707070707070707070756
:103704000707070707070707070707070708080842
:103714000808080808080808080808080808080825
:103724000808080808080808080808080808080815
:103734000808080808080808080808080808080805
:1037440008080808080808080808080808080808F5
:1037540008080808080808080808080808080808E5
:1037640008080808080808080808080808080808D5
:1037740008080808080808080808080808080808C5
:0E3784000808080808080808080808080800CF
:00000001FF
